:030000000209767C
:0C097600787FE4F6D8FD7581290209BDE8
:10000E003030464600F330303030F306F6F6F6F672
:03001E00F6FC00ED
:100C5F00031D00000049007A3030303046460D0A3F
:010C6F000084
:10002600E4F51C120BB5E4900073F090007AF07FB3
:100036006490000074AAF0A3DFFC7F64750BFF7563
:100046000C00750D0E7BFF7A0079131208C2EF645F
:10005600014E70CFC3E523942CE5229401400302A0
:10006600014E900064E0B404EBE525D3940B40E424
:1000760074F42525F582E434FFF583E0B4F4D574F1
:10008600FA2525F582E434FFF583E0AD257C002DC5
:10009600FFEC33FE74F42FF58274FF3EF583E0B473
:1000A60030B274F72525F582E434FFF583E0B430E9
:1000B600A374F82525F582E434FFF583E0643070F7
:1000C6009374002525F582E43400F583E4F074FA90
:1000D6002DF9EC34FFFA7B0178737C007D01120860
:1000E60012120C7B78657C007D017BFF7A00791308
:1000F600120812900066E090007CF0900067E09095
:10010600007DF09000667430F0A3F07B017A0079F0
:100116007C120C1790006A74F6F0E4A3F0750B01DC
:10012600750C00750D737B017A007965120B1090C2
:10013600007174FCF090006674F3F07F0A7E001282
:100146000BE5D200C28CD2CD200003020029E51CAB
:100156006021750BFF750C00750D0E7B017A007919
:10016600651208C2EF64014E6003020029E4F51C23
:10017600120C7B900064E024FE700302026A147085
:100186000302036C14700302052E1470030206DDCD
:10019600240470DFE525D3940B50030206D574F4CE
:1001A6002525F582E434FFF583E064F16003020659
:1001B600D574FA2525F582E434FFF583E0FFFDE5E5
:1001C600252DFDE433FC74F42DF58274FF3CF58394
:1001D600E0643060030206D5EF640B601D74F52DF4
:1001E600F58274FF3CF583E0FF74F62525F582E47D
:1001F60034FFF583E0FEEF6E706774012525F58206
:10020600E43400F583E4F0FE74F42525F9EE34FFBA
:10021600FA7B0178657C007D01120812900066E089
:1002260090007CF0900067E090007DF0900066748E
:1002360030F0A3F090006BE014F07B017A00797C3B
:10024600120C17750BFF750C00750D0E7B017A00ED
:1002560079651208C2EF64014E60030206CF120CE4
:100266007B0206D5E525D3940B500302036974F48B
:100276002525F582E434FFF583E064F2600302038A
:100286006974FA2525F582E434FFF583E0FFFDE580
:10029600252DFDE433FC74F42DF58274FF3CF583C3
:1002A600E064306003020369EF6407602074F32D95
:1002B600F58274FF3CF583E0FF74F62525F582E4AC
:1002C60034FFF583E0FEEF6E6003020369740125D7
:1002D60025F582E43400F583E4F0FE74F42525F96F
:1002E600EE34FFFA7B0178657C007D0112081290DE
:1002F6000066E090007CF0900067E090007DF09052
:1003060000667430F0A3F090006BE004F07B017A95
:1003160000797C120C17750BFF750C00750D0E7BA2
:10032600017A0079651208C2EF64014E60329000CE
:100336006A74F7F0A3E024FEF090006574F1F09083
:10034600007174FEF0750BFF750C00750D0E7B01C8
:100356007A0079651208C2EF64014E60030206CF87
:10036600120C7B0206D5E525D3940B500302045EDE
:1003760074F42525F582E434FFF583E064F3600325
:1003860002045E74F92525F582E434FFF583E06402
:10039600F3600302045E74F62525F582E434FFF566
:1003A60083E0FF74F82525F582E434FFF583E06FDA
:1003B600600302045E74F52525F582E434FFF583B7
:1003C600E0FF74F72525F582E434FFF583E06F60DE
:1003D6000302045E74012525F582E43400F583E406
:1003E600F0FE74F42525F9EE34FFFA7B0178657C7E
:1003F600007D01120812E490006BF0750B01750C7C
:1004060000750D737B017A007965120B10900071EF
:1004160074FCF090006BE014F0900066E090007CB5
:10042600F0900067E090007DF09000667430F0A3D5
:10043600F07B017A00797C120C17750BFF750C00A6
:10044600750D0E7B017A0079651208C2EF64014EC4
:1004560060030206CF020528E525D3940B5003025C
:10046600052B74F42525F582E434FFF583E064F367
:10047600600302052B74FA2525F582E434FFF58323
:10048600E0FFFDE5252DFDE433FC74F42DF58274C3
:10049600FF3CF583E06430600302052BEF640B60DC
:1004A6001D74F52DF58274FF3CF583E0FF74F62587
:1004B60025F582E434FFF583E0FEEF6E7067740184
:1004C6002525F582E43400F583E4F0FE74F4252551
:1004D600F9EE34FFFA7B0178657C007D0112081283
:1004E600900066E090007CF0900067E090007DF060
:1004F6009000667430F0A3F090006BE014F07B017E
:100506007A00797C120C17750BFF750C00750D0EB1
:100516007B017A0079651208C2EF64014E6003021E
:1005260006CF120C7B0206D5E525D3940B500302A9
:1005360006D574F42525F582E434FFF583E064F4EA
:1005460060030206D574FA2525F582E434FFF583A7
:10055600E0FFFDE5252DFDE433FC74F42DF58274F2
:10056600FF3CF583E0643060030206D5EF64076064
:100576002074F32DF58274FF3CF583E0FF74F625B5
:1005860025F582E434FFF583E0FEEF6E6003020694
:10059600D574F72525F582E434FFF583E0643060F1
:1005A6000302063F74F82525F582E434FFF583E05F
:1005B6006430600302063F74002525F582E43400AA
:1005C600F583E4F0FE74FA2525F9EE34FFFA7B0193
:1005D60078737C007D0112081278657C007D017BB2
:1005E600FF7A007913120812900066E090007CF002
:1005F600900067E090007DF09000667430F0A3F004
:100606007B017A00797C120C1790006A74F6F0E48C
:10061600A3F0750B01750C00750D737B017A0079DB
:1006260065120B1090007174FCF090006674F3F084
:10063600D200C28CD2CD0206D574012525F582E4FE
:100646003400F583E4F0FE74F42525F9EE34FFFA60
:100656007B0178657C007D01120812900066E090AF
:10066600007CF0900067E090007DF09000667430AA
:10067600F0A3F090006BE004F07B017A00797C1225
:100686000C17750BFF750C00750D0E7B017A007942
:10069600651208C2EF64014E603590006A74F7F087
:1006A600A3E024FEF090006574F1F090007174FEF2
:1006B600F0750BFF750C00750D0E7B017A007965E0
:1006C6001208C2EF64014E6006751C01020029E49F
:0F06D600900064F0020179E4900064F002017971
:0A0C7000012400012500410064008A
:100BB500E5A2543F4440F5A275985075D7D875D62F
:100BC500FF758E14438E01D2ACD2AF75890143A84F
:100BD50082758CC4E4F58AD28CF522F523C20022F5
:03000B00020C3CA8
:100C3C00C0E0C0D0758CC4758A000521E521B414C0
:100C4C000DB2CD7521000523E52370020522D0D00D
:030C5C00D0E032B3
:03002300020A02CC
:100A0200C0E0C083C082C0D0C2AC30986DC29874BE
:100A1200002524F582E43400F583E599F07400257D
:100A220024F582E43400F583E02406603814602A59
:100A320014601C14600E14703585242590006474B3
:100A420001F0802A8524259000647402F0801F85BD
:100A520024259000647403F080148524259000649A
:100A62007404F080098524259000647405F005243F
:100A7200E524C394634003752400309904C299C2EB
:0C0A820001D2ACD0D0D082D083D0E032C2
:090C8E002001FDEFD201F59922CD
:060C1100AB08AA09A90AC4
:100C17008B108A118912AB10AA11A9121206E5606E
:100C2700130512E5127002051114F91206E5FF12F9
:050C37000C8E80E2229A
:100C7B007E007F647D007B017A00790012082FE4EF
:030C8B00F524222B
:100BE500E4FDFCE4FBFAC3EB9FEA9E501390000082
:100BF500A3E582647B458370F70BBB00010A80E6A1
:0B0C05000DBD00010CED640A4C70D81E
:010C100022C1
:0608C2008B088A09890A77
:1008C800120C7BE4900064F0F50E120C117F327E5E
:1008D80000120BE5E4F50FE50FC3940A50227F01DF
:1008E8007E00120BE5050F850B13850C14850D157D
:1008F8007B017A007900120A8EE94A4B60D9805B45
:10090800E4F50F050EE50EC3940A40BEE50EC39448
:10091800105054120B687C047D001207107E007F73
:10092800321206FE120BE5120C117F327E00120BFA
:10093800E5E4F50FE50FC3940A50257F017E001208
:100948000BE5050F850B13850C14850D157B017AB6
:10095800007900120A8EE94A4B60D97E007F012295
:0D096800E4F50F050E80A5120C7BE4FEFFE8
:01097500225F
:10098200020026E493A3F8E493A34003F68001F265
:1009920008DFF48029E493A3F85407240CC8C33376
:1009A200C4540F4420C8834004F456800146F6DF45
:1009B200E4800B0102040810204080900C5FE47E6A
:1009C200019360BCA3FF543F30E509541FFEE4933A
:1009D200A360010ECF54C025E060A840B8E493A301
:1009E200FAE493A3F8E493A3C8C582C8CAC583CA2C
:1009F200F0A3C8C582C8CAC583CADFE9DEE780BEE4
:010C7A000079
:1006E500BB010689828A83E0225002E722BBFE0213
:0906F500E32289828A83E4932246
:1006FE00EF8DF0A4A8F0CF8CF0A428CE8DF0A42E10
:02070E00FE22C9
:10071000C2D5EC30E709B2D5E4C39DFDE49CFCEE04
:1007200030E715B2D5E4C39FFFE49EFE12086DC307
:10073000E49DFDE49CFC800312086D30D507C3E402
:060740009FFFE49EFE2273
:100B6800AC26AD27AE28AF297810EC4D4E4F700457
:100B78007CA57DA5C3EC13FCED13FDEE13FEEF136E
:100B8800FF5010EC64CCFCED644CFDEE644EFEEFBF
:100B980064CEFFD8DF8C268D278E288F29EE547FD0
:0D0BA800FE228E268F2774A5F528F5292240
:100B10008B088A09890A8B0E8A0F8910AB08050A8F
:100B2000E50AAA097002050914F91206E570ED74C8
:100B3000FF250AF50A74FF3509F509AB0B050DE52C
:100B40000DAA0C7002050C14F91206E5FFAB08059E
:100B50000AE50AAA097002050914F9EF12085B7088
:080B6000DAAB0EAA0FA9102266
:10074600E709F60870FA8046E709F20870FA803E73
:1007560088828C83E709F0A370FA807EE309F608A5
:1007660070FA8076E309F20870FA806E88828C83CC
:10077600E309F0A370FA806289828A83E0A3F6080F
:1007860070FA805689828A83E0A3F20870FA804A5A
:1007960080D280FA80C680D4806580F28031801055
:1007A60080A680EA809A80A880DA80E280CA8031BA
:1007B60089828A83ECFAE493A3C8C582C8CCC58330
:1007C600CCF0A3C8C582C8CCC583CC70E9800D899E
:1007D600828A83E493A3F60870F9ECFAA9F0EDFB9C
:1007E6002289828A83ECFAE0A3C8C582C8CCC58375
:1007F600CCF0A3C8C582C8CCC583CC70EA80DD899D
:10080600828A83E493A3F20870F980CE88F0ED24FF
:1008160002B4040050C4F582EB2402B4040050BABA
:09082600232345822390079673F9
:100A8E008B108A118912AB13AA14A9151206E560F0
:100A9E0063AB10AA11A9121206E5605F85131685C5
:100AAE0014178515188B198A1A891BAB16AA17A944
:100ABE00181206E5FF6023AB19AA1AA91B1206E548
:100ACE006F7017042518F518E43517F517740125FE
:100ADE001BF51BE4351AF51A80D1AB16AA17A91807
:100AEE001206E57002800D74012512F512E435111F
:100AFE00F511809DAB10AA11A912227B007A007904
:020B0E000022C3
:10082F00EF4E6012EF60010EEDBB010B89828A83E0
:10083F00F0A3DFFCDEFA2289F05007F709DFFCA9ED
:0C084F00F022BBFEFCF309DFFCA9F02244
:10085B00BB010689828A83F0225002F722BBFE017C
:02086B00F32276
:10086D00BC000BBE0029EF8DF084FFADF022E4CC6F
:10087D00F875F008EF2FFFEE33FEEC33FCEE9DEC38
:10088D00984005FCEE9DFE0FD5F0E9E4CEFD22ED7E
:10089D00F8F5F0EE8420D21CFEADF075F008EF2FC8
:1008AD00FFED33FD4007985006D5F0F222C398FDB9
:0508BD000FD5F0EA2256
:00000001FF
