:030000000206688D
:0C066800787FE4F6D8FD7581290206AF0A
:10000E006133464600F361336133F306F6F6F6F6D6
:03001E00F6FC00ED
:0C09240049007A6133303046460D0A006D
:10003E00C200120850E4900073F090007AF0751F21
:10004E00051208D7750BFF750C00750D0E7BFF7A28
:10005E0000791312051FEF64014E70D6C3E5239489
:10006E002CE5229401400302012E900064E0B404BA
:10007E00EBE525D3940B40E474F42525F582E434A6
:10008E00FFF583E0B4F4D574F72525F582E434FF4B
:10009E00F583E0B461C674F82525F582E434FFF5E6
:1000AE0083E0B433B774FA2525F582E434FFF58383
:1000BE00E0FF640C6016E5252FFFE433FE74F42F89
:1000CE00F58274FF3EF583E064F67090740025258A
:1000DE00F582E43400F583E4F0FE74FA2525F9EE9A
:1000EE0034FFFA7B0178737C007D0112046F74F586
:1000FE002525F582E434FFF583E090007CF074F65C
:10010E002525F582E434FFF583E090007DF01200A2
:10011E00267B017A00797C1208B2D201C28CD2CD34
:10012E00200103020040300020750BFF750C007596
:10013E000D0E7B017A00796512051FEF64014E608A
:10014E0003020040C200120026900064E024FC70FE
:10015E00030202141470030202CB24036003020292
:10016E00D0E525D3940B50030202CB74F42525F56C
:10017E0082E434FFF583E064F260030202CB74FA8A
:10018E002525F582E434FFF583E0FF640C6016E567
:10019E00252FFFE433FE74F42FF58274FF3EF583B2
:1001AE00E064F6705E74F72525F582E434FFF5837E
:1001BE00E06461704E74F82525F582E434FFF58312
:1001CE00E06433703E74F92525F582E434FFF5833F
:1001DE00E0B4012F12002674F52525F582E434FFD4
:1001EE00F583E090007CF074F62525F582E434FF6B
:1001FE00F583E090007DF07B017A00797C1208B2E5
:10020E00751F0D0202CBE525D3940B50030202C9D4
:10021E0074F42525F582E434FFF583E064F460037D
:10022E000202C974FA2525F582E434FFF583E0FF56
:10023E00640C6016E5252FFFE433FE74F42FF5826F
:10024E0074FF3EF583E064F6707174F72525F58230
:10025E00E434FFF583E06461706174F82525F5825E
:10026E00E434FFF583E06433705174002525F58284
:10027E00E43400F583E4F0FE74FA2525F9EE34FF3C
:10028E00FA7B0178737C007D0112046F74F52525CD
:10029E00F582E434FFF583E090007CF074F62525BA
:1002AE00F582E434FFF583E090007DF07B017A0067
:1002BE00797C1208B2D201C28CD2CD8000E49000BB
:1002CE0064F0E51F640D60030201577F887E1312F0
:1002DE000880751F0578657C007D017BFF7A0079AB
:1002EE001312046F90006A7401F0E4A3F0750B0111
:1002FE00750C00750D737B017A0079651207769087
:10030E00006BE014F090007174FEF090006574F1D3
:10031E00F0750BFF750C00750D0E7B017A0079657B
:10032E0012051FEF64014E6005D20002004012005C
:04033E00260201573B
:03003B0002081B9D
:10081B00C0E0C0D0C2D8851DEAE51CF5FA7480256E
:10082B001DF51D7401351CF51CE51EC3951F5004E9
:10083B00D2918002C291051EE51EB45003751E00B5
:05084B00D0D0D0E03226
:1008D700E4F5D8F5E9F5F9F5D9751C01751D80859D
:1008E7001DEAE51CF5FA7480251DF51D7401351CFC
:0A08F700F51C75DA49D2DED2AF22FB
:0A09300001240001250041006400CD
:10085000E5A2543F4440F5A275985075D7D875D697
:10086000FF758E14438E01D2ACD2AF75890143A8B7
:1008700082758CC4E4F58AD28CF522F523C201225C
:03000B00020901E6
:10090100C0E0C0D0758CC4758A000521E521B414FE
:100911000DB2CD7521000523E52370020522D0D04B
:03092100D0E032F1
:030023000205D300
:1005D300C0E0C083C082C0D0C2AC309876C29874E9
:1005E300002524F582E43400F583E599F0740025B1
:1005F30024F582E43400F583E02406603C14602E85
:1006030014602014601224FE603A04703A85242595
:100613009000647401F0802F852425900064740297
:10062300F080248524259000647403F080198524C8
:10063300259000647404F0800E8524259000647472
:1006430005F08003751F0D0524E524C3946340035F
:10065300752400309904C299C202D2ACD0D0D082A2
:05066300D083D0E0325D
:09093B002002FDEFD202F5992221
:0608AC00AB08AA09A90A2D
:1008B2008B108A118912AB10AA11A912120342607D
:1008C200130512E5127002051114F9120342FF1208
:0508D200093B80E22259
:100026007E007F647D007B017A00790012048CE4F7
:03003600F524228C
:10088000E4FDFCE4FBFAC3EB9FEA9E5013900000EA
:10089000A3E582647B458370F70BBB00010A80E609
:0B08A0000DBD00010CED640A4C70D887
:0108AB00222A
:06051F008B088A09890A1D
:10052500120026E4900064F0F50E1208AC7F647E9C
:1005350000120880E4F50FE50FC3940A50227F01ED
:100545007E00120880050F850B13850C14850D158B
:100555007B017A0079001206F4E94A4B60D9805B89
:10056500E4F50F050EE50EC3940A40BEE50EC394EF
:100575001050541207CE7C047D0012036D7E007F5F
:100585003212035B1208801208AC7F327E0012081B
:1005950080E4F50FE50FC3940A50257F017E001214
:1005A5000880050F850B13850C14850D157B017AC5
:1005B5000079001206F4E94A4B60D97E007F0122DA
:0D05C500E4F50F050E80A5120026E4FEFFF0
:0105D2002206
:1006740002003EE493A3F8E493A34003F68001F25E
:1006840008DFF48029E493A3F85407240CC8C33387
:10069400C4540F4420C8834004F456800146F6DF56
:1006A400E4800B0102040810204080900924E47EB9
:1006B400019360BCA3FF543F30E509541FFEE4934B
:1006C400A360010ECF54C025E060A840B8E493A312
:1006D400FAE493A3F8E493A3C8C582C8CAC583CA3D
:1006E400F0A3C8C582C8CAC583CADFE9DEE780BEF5
:01093A0000BC
:10034200BB010689828A83E0225002E722BBFE02B9
:09035200E32289828A83E49322EC
:10035B00EF8DF0A4A8F0CF8CF0A428CE8DF0A42EB6
:02036B00FE2270
:10036D00C2D5EC30E709B2D5E4C39DFDE49CFCEEAB
:10037D0030E715B2D5E4C39FFFE49EFE1204CAC355
:10038D00E49DFDE49CFC80031204CA30D507C3E450
:06039D009FFFE49EFE221A
:1007CE00AC26AD27AE28AF297810EC4D4E4F7004F5
:1007DE007CA57DA5C3EC13FCED13FDEE13FEEF130C
:1007EE00FF5010EC64CCFCED644CFDEE644EFEEF5D
:1007FE0064CEFFD8DF8C268D278E288F29EE547F6E
:0D080E00FE228E268F2774A5F528F52922DD
:100776008B088A09890A8B0E8A0F8910AB08050A2D
:10078600E50AAA097002050914F912034270ED740C
:10079600FF250AF50A74FF3509F509AB0B050DE5CA
:1007A6000DAA0C7002050C14F9120342FFAB0805E2
:1007B6000AE50AAA097002050914F9EF1204B870CD
:0807C600DAAB0EAA0FA9102204
:1003A300E709F60870FA8046E709F20870FA803E1A
:1003B30088828C83E709F0A370FA807EE309F6084C
:1003C30070FA8076E309F20870FA806E88828C8373
:1003D300E309F0A370FA806289828A83E0A3F608B6
:1003E30070FA805689828A83E0A3F20870FA804A01
:1003F30080D280FA80C680D4806580F280318010FC
:1004030080A680EA809A80A880DA80E280CA803160
:1004130089828A83ECFAE493A3C8C582C8CCC583D6
:10042300CCF0A3C8C582C8CCC583CC70E9800D8944
:10043300828A83E493A3F60870F9ECFAA9F0EDFB42
:100443002289828A83ECFAE0A3C8C582C8CCC5831B
:10045300CCF0A3C8C582C8CCC583CC70EA80DD8943
:10046300828A83E493A3F20870F980CE88F0ED24A6
:1004730002B4040050C4F582EB2402B4040050BA61
:0904830023234582239003F37347
:1006F4008B108A118912AB13AA14A9151203426034
:1007040063AB10AA11A912120342605F8513168508
:1007140014178515188B198A1A891BAB16AA17A9E1
:1007240018120342FF6023AB19AA1AA91B12034231
:100734006F7017042518F518E43517F5177401259B
:100744001BF51BE4351AF51A80D1AB16AA17A918A4
:100754001203427002800D74012512F512E4351162
:10076400F511809DAB10AA11A912227B007A0079A1
:02077400002261
:10048C00EF4E6012EF60010EEDBB010B89828A8387
:10049C00F0A3DFFCDEFA2289F05007F709DFFCA994
:0C04AC00F022BBFEFCF309DFFCA9F022EB
:1004B800BB010689828A83F0225002F722BBFE0123
:0204C800F3221D
:1004CA00BC000BBE0029EF8DF084FFADF022E4CC16
:1004DA00F875F008EF2FFFEE33FEEC33FCEE9DECDF
:1004EA00984005FCEE9DFE0FD5F0E9E4CEFD22ED25
:1004FA00F8F5F0EE8420D21CFEADF075F008EF2F6F
:10050A00FFED33FD4007985006D5F0F222C398FD5F
:05051A000FD5F0EA22FC
:00000001FF
