:03000000020732C2
:0C073200787FE4F6D8FD75812402077979
:10000E003030464600F330303030F301F6F6F6F677
:03001E00F6FC00ED
:0C0A0D0049007A3030303046460D0A00B7
:100026001209C8E4900072F090006BF0D2009000C4
:10003600737407F0A37430F075240274732524F5E5
:1000460082E43400F58374F6F00524E524B406EB67
:10005600E4900079F07B017A0079731209A37BFFA3
:100066007A0079131209A3900064E024FE7003025B
:10007600015B1470030201641470030202DB147046
:1000860003020490240470DF3000DCE523D3940BD4
:10009600500302048874F42523F582E434FFF583C3
:1000A600E064F1600302048874FA2523F582E434DF
:1000B600FFF583E0FFFDE5232DFDE433FC74F42D0D
:1000C600F58274FF3CF583E064306003020488EF38
:1000D600640B601D74F52DF58274FF3CF583E0FF1B
:1000E60074F62523F582E434FFF583E0FEEF6E70A7
:1000F6006A74012523F582E43400F583E4F0FE7486
:10010600F42523F9EE34FFFA7B0178657C007D0146
:100116001205CB7B017A0079651209A3900066E08F
:1001260090007CF0900067E090007DF090007AE00F
:10013600900066F090007BE0900067F090006BE026
:1001460014F07B017A00797C1209A37F0A7E0012E3
:10015600097102048820000302006D020488200051
:100166000302006DE523D3940B500302027074F46E
:100176002523F582E434FFF583E064F3600302028D
:100186007074F92523F582E434FFF583E064F360A7
:100196000302027074F62523F582E434FFF583E04A
:1001A600FF74F82523F582E434FFF583E06F6003DE
:1001B60002027074F52523F582E434FFF583E0FF2F
:1001C60074F72523F582E434FFF583E06F600302BC
:1001D600027074012523F582E43400F583E4F0FE11
:1001E60074F42523F9EE34FFFA7B0178657C007DF3
:1001F600011205CBE490006BF0750B01750C0075D0
:100206000D737B017A0079651208CC90007174FC3D
:10021600F090006574F4F090007174FBF090006645
:10022600E090007CF0900067E090007DF090007A0E
:10023600E0900066F090007BE0900067F07B017A2A
:1002460000797C1209A3750BFF750C00750D0E7BEA
:10025600017A00796512067BEF64014E60030200A5
:10026600267F0A7E001209718068E523D3940B402D
:100276006174F42523F582E434FFF583E064F370BA
:100286005174F92523F582E434FFF583E064F670B2
:100296004174F62523F582E434FFF583E0FF74F814
:1002A6002523F582E434FFF583E0B5072574F525AB
:1002B60023F582E434FFF583E0FF74F72523F58206
:1002C600E434FFF583E0B507097B017A00797C12F7
:1002D60009A3020488E523D3940B5003020488740F
:1002E600F42523F582E434FFF583E064F460030229
:1002F600048874FA2523F582E434FFF583E0FFFDD4
:10030600E5232DFDE433FC74F42DF58274FF3CF5F2
:1003160083E064306003020488EF6407602074F3AE
:100326002DF58274FF3CF583E0FF74F62523F582F4
:10033600E434FFF583E0FEEF6E600302048874F890
:100346002523F582E434FFF583E06430600302047C
:100356001574F92523F582E434FFF583E0643060F3
:100366000302041574002523F582E43400F583E4C2
:10037600F0FE74FA2523F9EE34FFFA7B0178737CDC
:10038600007D011205CB78657C007D017BFF7A003C
:1003960079131205CB900066E090007CF090006720
:1003A600E090007DF090007AE0900066F090007B8F
:1003B600E0900067F07B017A00797C1209A3900037
:1003C6006A74F6F0E4A3F0750B01750C00750D73F5
:1003D6007B017A0079651208CC90007174FCF0906C
:1003E600006674F3F0750BFF750C00750D0E7B013E
:1003F6007A00796512067BEF64014E6003020026DF
:100406007F0A7E00120971D200C28CD2CD80732081
:10041600000302006D74012523F582E43400F583A0
:10042600E4F078657C007D017B017AFF79F41205A2
:10043600CB900066E090007CF0900067E090007D35
:10044600F090007AE0900066F090007BE090006704
:10045600F090006BE004F07B017A00797C1209A32E
:10046600750BFF750C00750D0E7B017A0079651210
:10047600067BEF64014E60030200267F0A7E0012AF
:100486000971E4900064F002006D20000302006D23
:08049600E4900064F002006D27
:0A0A190001220001230041006400E7
:1009C800E5A2543F4440F5A275985075D7D875D61E
:1009D800FF758E14438E01D2ACD2AF75890143A83E
:0A09E80082758C2EE4F58AD28C2271
:03000B000209F2F5
:1009F200C0E0C0D0758C2E758A000521E521B414A3
:0B0A020005B2CD752100D0D0D0E0324D
:030023000207BE13
:1007BE00C0E0C083C082C0D0C2AC30986DC2987405
:1007CE00002522F582E43400F583E599F0740025C6
:1007DE0022F582E43400F583E02406603814602AA2
:1007EE0014601C14600E14703585222390006474FE
:1007FE0001F0802A8522239000647402F0801F8508
:10080E0022239000647403F08014852223900064E8
:10081E007404F080098522239000647405F005228B
:10082E00E522C394634003752200309904C299C235
:0C083E0001D2ACD0D0D082D083D0E03208
:090A37002001FDEFD201F5992226
:06099D00AB08AA09A90A3B
:1009A3008B108A118912AB10AA11A91212049E602E
:1009B300130512E5127002051114F912049EFF12B9
:0509C3000A3780E2226A
:100A24007E007F647D007B017A0079001205E8E492
:030A3400F5222286
:10097100E4FDFCE4FBFAC3EB9FEA9E5013900000F8
:10098100A3E582647B458370F70BBB00010A80E617
:0B0991000DBD00010CED640A4C70D895
:01099C002238
:06067B008B088A09890AC0
:10068100120A24E4900064F0F50E12099D7F327E77
:1006910000120971E4F50FE50FC3940A50227F019E
:1006A1007E00120971050F850B13850C14850D153C
:1006B1007B017A00790012084AE94A4B60D9805BD4
:1006C100E4F50F050EE50EC3940A40BEE50EC39492
:1006D1001050571209247C047D001204C97E007F4A
:1006E100321204B712097112099D7F327E0012097C
:1006F10071E4F50FE50FC3940A50287F017E0012C3
:100701000971050F850B13850C14850D157B017A75
:1007110000790012084AE94A4B60D9120A247E0086
:100721007F0122E4F50F050E80A2120A24E4FEFFE8
:0107310022A5
:10073E00020026E493A3F8E493A34003F68001F2AB
:10074E0008DFF48029E493A3F85407240CC8C333BC
:10075E00C4540F4420C8834004F456800146F6DF8B
:10076E00E4800B0102040810204080900A0DE47E04
:10077E00019360BCA3FF543F30E509541FFEE49380
:10078E00A360010ECF54C025E060A840B8E493A347
:10079E00FAE493A3F8E493A3C8C582C8CAC583CA72
:1007AE00F0A3C8C582C8CAC583CADFE9DEE780BE2A
:010A230000D2
:10049E00BB010689828A83E0225002E722BBFE025C
:0904AE00E32289828A83E493228F
:1004B700EF8DF0A4A8F0CF8CF0A428CE8DF0A42E59
:0204C700FE2213
:1004C900C2D5EC30E709B2D5E4C39DFDE49CFCEE4E
:1004D90030E715B2D5E4C39FFFE49EFE120626C39A
:1004E900E49DFDE49CFC800312062630D507C3E495
:0604F9009FFFE49EFE22BD
:10092400AC1CAD1DAE1EAF1F7810EC4D4E4F7004C5
:100934007CA57DA5C3EC13FCED13FDEE13FEEF13B4
:10094400FF5010EC64CCFCED644CFDEE644EFEEF05
:1009540064CEFFD8DF8C1C8D1D8E1E8F1FEE547F3E
:0D096400FE228E1C8F1D74A5F51EF51F22AE
:1008CC008B088A09890A8B0E8A0F8910AB08050AD6
:1008DC00E50AAA097002050914F912049E70ED7458
:1008EC00FF250AF50A74FF3509F509AB0B050DE573
:1008FC000DAA0C7002050C14F912049EFFAB08052E
:10090C000AE50AAA097002050914F9EF1206147017
:08091C00DAAB0EAA0FA91022AC
:1004FF00E709F60870FA8046E709F20870FA803EBD
:10050F0088828C83E709F0A370FA807EE309F608EE
:10051F0070FA8076E309F20870FA806E88828C8315
:10052F00E309F0A370FA806289828A83E0A3F60858
:10053F0070FA805689828A83E0A3F20870FA804AA3
:10054F0080D280FA80C680D4806580F2803180109E
:10055F0080A680EA809A80A880DA80E280CA803103
:10056F0089828A83ECFAE493A3C8C582C8CCC58379
:10057F00CCF0A3C8C582C8CCC583CC70E9800D89E7
:10058F00828A83E493A3F60870F9ECFAA9F0EDFBE5
:10059F002289828A83ECFAE0A3C8C582C8CCC583BE
:1005AF00CCF0A3C8C582C8CCC583CC70EA80DD89E6
:1005BF00828A83E493A3F20870F980CE88F0ED2449
:1005CF0002B4040050C4F582EB2402B4040050BA04
:0905DF00232345822390054F738C
:10084A008B108A118912AB13AA14A91512049E607F
:10085A0063AB10AA11A91212049E605F8513168554
:10086A0014178515188B198A1A891BAB16AA17A98A
:10087A001812049EFF6023AB19AA1AA91B12049E20
:10088A006F7017042518F518E43517F51774012544
:10089A001BF51BE4351AF51A80D1AB16AA17A9184D
:1008AA0012049E7002800D74012512F512E43511AE
:1008BA00F511809DAB10AA11A912227B007A00794A
:0208CA0000220A
:1005E800EF4E6012EF60010EEDBB010B89828A832A
:1005F800F0A3DFFCDEFA2289F05007F709DFFCA937
:0C060800F022BBFEFCF309DFFCA9F0228D
:10061400BB010689828A83F0225002F722BBFE01C5
:02062400F322BF
:10062600BC000BBE0029EF8DF084FFADF022E4CCB8
:10063600F875F008EF2FFFEE33FEEC33FCEE9DEC81
:10064600984005FCEE9DFE0FD5F0E9E4CEFD22EDC7
:10065600F8F5F0EE8420D21CFEADF075F008EF2F11
:10066600FFED33FD4007985006D5F0F222C398FD02
:050676000FD5F0EA229F
:00000001FF
