:0300000002088F64
:0C088F00787FE4F6D8FD7581280208D6B9
:10000E003030464600F330303030F306F6F6F6F672
:03001E00F6FC00ED
:100B7800032600000049007A3030303046460D0A1E
:010B8800006C
:10002600C200120ACEE4900073F090007AF0750BCD
:10003600FF750C00750D0E7BFF7A0079131207DB36
:10004600EF64014E70DCC3E523942CE52294014055
:100056000302010B900064E0B404EBE525D3940B96
:1000660040E474F42525F582E434FFF583E0B4F426
:10007600D574FA2525F582E434FFF583E0AD257CB9
:10008600002DFFEC33FE74F42FF58274FF3EF583EA
:10009600E0B430B274F72525F582E434FFF583E049
:1000A600B430A374F82525F582E434FFF583E064C3
:1000B60030709374002525F582E43400F583E4F06E
:1000C60074FA2DF9EC34FFFA7B0178737C007D011C
:1000D60012072B74F52525F582E434FFF583E090AD
:1000E600007CF074F62525F582E434FFF583E09074
:1000F600007DF0120B947B017A00797C120B30D2D2
:1001060001C28CD2CD200103020028300020750BDD
:10011600FF750C00750D0E7B017A0079651207DB01
:10012600EF64014E6003020028C200120B94900097
:1001360064E024FE70030202001470030202DD1460
:1001460070030204A31470030205F6240470DFE5AD
:1001560025D3940B50030205EE74F42525F582E4AD
:1001660034FFF583E064F160030205EE74FA252599
:10017600F582E434FFF583E0AD257C002DFFEC33FA
:10018600FE74F42FF58274FF3EF583E064307067E9
:1001960074012525F582E43400F583E4F074F42D2A
:1001A600F9EC34FFFA7B0178657C007D0112072BA0
:1001B600900066E090007CF0900067E090007DF093
:1001C6009000667430F0A3F090006BE014F07B01B1
:1001D6007A00797C120B30750BFF750C00750D0ECD
:1001E6007B017A0079651207DBEF64014E6005D268
:1001F60000020028120B940205EEE525D3940B505D
:10020600030202DA74F42525F582E434FFF583E06F
:1002160064F260030202DA74FA2525F582E434FFFB
:10022600F583E0AD257C002DFFEC33FE74F42FF54D
:100236008274FF3EF583E0643060030202DA7401E3
:100246002525F582E43400F583E4F074F42DF9EC09
:1002560034FFFA7B0178657C007D0112072B900044
:1002660066E090007CF0900067E090007DF09000E2
:10027600667430F0A3F090006BE004F07B017A0026
:10028600797C120B30750BFF750C00750D0E7B011A
:100296007A0079651207DBEF64014E603490006ADC
:1002A60074F7F0A3E024FEF090006574F1F090007E
:1002B6007174FEF0750BFF750C00750D0E7B017ADF
:1002C6000079651207DBEF64014E6005D20002007B
:1002D60028120B940205EEE525D3940B5003020376
:1002E600D174F42525F582E434FFF583E064F360E8
:1002F600030203D174F92525F582E434FFF583E082
:1003060064F360030203D174F62525F582E434FF15
:10031600F583E0FF74F82525F582E434FFF583E0E4
:100326006F60030203D174F52525F582E434FFF5E9
:1003360083E0FF74F72525F582E434FFF583E06F4B
:1003460060030203D174012525F582E43400F583A8
:10035600E4F0FE74F42525F9EE34FFFA7B017865A6
:100366007C007D0112072BE490006BF0750B017584
:100376000C00750D737B017A007965120A299000CD
:100386007174FCF090006BE014F0900066E0900051
:100396007CF0900067E090007DF09000667430F08D
:1003A600A3F07B017A00797C120B30750BFF750C7C
:1003B60000750D0E7B017A0079651207DBEF64018B
:1003C6004E6005D20002002802049DE525D3940B59
:1003D60050030204A074F42525F582E434FFF58366
:1003E600E064F360030204A074FA2525F582E43480
:1003F600FFF583E0FFFDE5252DFDE433FC74F42DC8
:10040600F58274FF3CF583E0643060030204A0EFDC
:10041600640B601D74F52DF58274FF3CF583E0FFD7
:1004260074F62525F582E434FFF583E0FEEF6E7061
:100436006974012525F582E43400F583E4F0FE7441
:10044600F42525F9EE34FFFA7B0178657C007D0101
:1004560012072B900066E090007CF0900067E09019
:10046600007DF09000667430F0A3F090006BE0140D
:10047600F07B017A00797C120B30750BFF750C004E
:10048600750D0E7B017A0079651207DBEF64014E6C
:100496006005D200020028120B940205EEE525D372
:1004A600940B50030205EE74F42525F582E434FF1F
:1004B600F583E064F460030205EE74FA2525F582FF
:1004C600E434FFF583E0AD257C002DFFEC33FE74AC
:1004D600F42FF58274FF3EF583E064306003020575
:1004E600EE74F72525F582E434FFF583E064307079
:1004F6006274F82525F582E434FFF583E0643070F4
:100506005274002525F582E43400F583E4F074FA8C
:100516002DF9EC34FFFA7B0178737C007D0112071C
:100526002B74F52525F582E434FFF583E090007CF5
:10053600F074F62525F582E434FFF583E090007D1E
:10054600F07B017A00797C120B30D201C28CD2CDBD
:100556000205EE74012525F582E43400F583E4F006
:10056600FE74F42525F9EE34FFFA7B0178657C00EC
:100576007D0112072B900066E090007CF0900067EA
:10058600E090007DF09000667430F0A3F090006B70
:10059600E004F07B017A00797C120B30750BFF7555
:1005A6000C00750D0E7B017A0079651207DBEF648E
:1005B600014E603490006A74F7F0A3E024FEF090D8
:1005C600006574F1F090007174FEF0750BFF750C08
:1005D60000750D0E7B017A0079651207DBEF640169
:1005E6004E6005D200020028E4900064F002013457
:0805F600E4900064F0020134FE
:0A0B89000124000125004100640072
:100ACE00E5A2543F4440F5A275985075D7D875D617
:100ADE00FF758E14438E01D2ACD2AF75890143A837
:100AEE0082758CC4E4F58AD28CF522F523C20122DC
:03000B00020B5590
:100B5500C0E0C0D0758CC4758A000521E521B414A8
:100B65000DB2CD7521000523E52370020522D0D0F5
:030B7500D0E0329B
:0300230002091BB4
:10091B00C0E0C083C082C0D0C2AC30986DC29874A6
:10092B00002524F582E43400F583E599F074002565
:10093B0024F582E43400F583E02406603814602A41
:10094B0014601C14600E147035852425900064749B
:10095B0001F0802A8524259000647402F0801F85A5
:10096B0024259000647403F0801485242590006482
:10097B007404F080098524259000647405F0052427
:10098B00E524C394634003752400309904C299C2D3
:0C099B0002D2ACD0D0D082D083D0E032A9
:090BA7002002FDEFD202F59922B3
:060B2A00AB08AA09A90AAC
:100B30008B108A118912AB10AA11A9121205FE603E
:100B4000130512E5127002051114F91205FEFF12C9
:050B50000BA780E2226A
:100B94007E007F647D007B017A007900120748E4BF
:030BA400F5242213
:100AFE00E4FDFCE4FBFAC3EB9FEA9E50139000006A
:100B0E00A3E582647B458370F70BBB00010A80E688
:0B0B1E000DBD00010CED640A4C70D806
:010B290022A9
:0607DB008B088A09890A5F
:1007E100120B94E4900064F0F50E120B2A7F327E16
:1007F10000120AFEE4F50FE50FC3940A50227F01AF
:100801007E00120AFE050F850B13850C14850D154C
:100811007B017A0079001209A7E94A4B60D9805B14
:10082100E4F50F050EE50EC3940A40BEE50EC39430
:10083100105054120A817C047D001206297E007F2B
:1008410032120617120AFE120B2A7F327E00120A9A
:10085100FEE4F50FE50FC3940A50257F017E0012D7
:100861000AFE050F850B13850C14850D157B017A86
:100871000079001209A7E94A4B60D97E007F012265
:0D088100E4F50F050E80A5120B94E4FEFFB8
:01088E002247
:10089B00020026E493A3F8E493A34003F68001F24D
:1008AB0008DFF48029E493A3F85407240CC8C3335E
:1008BB00C4540F4420C8834004F456800146F6DF2D
:1008CB00E4800B0102040810204080900B78E47E3A
:1008DB00019360BCA3FF543F30E509541FFEE49322
:1008EB00A360010ECF54C025E060A840B8E493A3E9
:1008FB00FAE493A3F8E493A3C8C582C8CAC583CA14
:10090B00F0A3C8C582C8CAC583CADFE9DEE780BECB
:010B93000061
:1005FE00BB010689828A83E0225002E722BBFE02FB
:09060E00E32289828A83E493222D
:10061700EF8DF0A4A8F0CF8CF0A428CE8DF0A42EF7
:02062700FE22B1
:10062900C2D5EC30E709B2D5E4C39DFDE49CFCEEEC
:1006390030E715B2D5E4C39FFFE49EFE120786C3D7
:10064900E49DFDE49CFC800312078630D507C3E4D2
:060659009FFFE49EFE225B
:100A8100AC1CAD1DAE1EAF1F7810EC4D4E4F700467
:100A91007CA57DA5C3EC13FCED13FDEE13FEEF1356
:100AA100FF5010EC64CCFCED644CFDEE644EFEEFA7
:100AB10064CEFFD8DF8C1C8D1D8E1E8F1FEE547FE0
:0D0AC100FE228E1C8F1D74A5F51EF51F2250
:100A29008B088A09890A8B0E8A0F8910AB08050A77
:100A3900E50AAA097002050914F91205FE70ED7498
:100A4900FF250AF50A74FF3509F509AB0B050DE514
:100A59000DAA0C7002050C14F91205FEFFAB08056E
:100A69000AE50AAA097002050914F9EF1207747058
:080A7900DAAB0EAA0FA910224E
:10065F00E709F60870FA8046E709F20870FA803E5B
:10066F0088828C83E709F0A370FA807EE309F6088D
:10067F0070FA8076E309F20870FA806E88828C83B4
:10068F00E309F0A370FA806289828A83E0A3F608F7
:10069F0070FA805689828A83E0A3F20870FA804A42
:1006AF0080D280FA80C680D4806580F2803180103D
:1006BF0080A680EA809A80A880DA80E280CA8031A2
:1006CF0089828A83ECFAE493A3C8C582C8CCC58318
:1006DF00CCF0A3C8C582C8CCC583CC70E9800D8986
:1006EF00828A83E493A3F60870F9ECFAA9F0EDFB84
:1006FF002289828A83ECFAE0A3C8C582C8CCC5835D
:10070F00CCF0A3C8C582C8CCC583CC70EA80DD8984
:10071F00828A83E493A3F20870F980CE88F0ED24E7
:10072F0002B4040050C4F582EB2402B4040050BAA2
:09073F0023234582239006AF73C9
:1009A7008B108A118912AB13AA14A9151205FE60C0
:1009B70063AB10AA11A9121205FE605F8513168595
:1009C70014178515188B198A1A891BAB16AA17A92C
:1009D700181205FEFF6023AB19AA1AA91B1205FE00
:1009E7006F7017042518F518E43517F517740125E6
:1009F7001BF51BE4351AF51A80D1AB16AA17A918EF
:100A07001205FE7002800D74012512F512E43511EE
:100A1700F511809DAB10AA11A912227B007A0079EB
:020A27000022AB
:10074800EF4E6012EF60010EEDBB010B89828A83C8
:10075800F0A3DFFCDEFA2289F05007F709DFFCA9D5
:0C076800F022BBFEFCF309DFFCA9F0222C
:10077400BB010689828A83F0225002F722BBFE0164
:02078400F3225E
:10078600BC000BBE0029EF8DF084FFADF022E4CC57
:10079600F875F008EF2FFFEE33FEEC33FCEE9DEC20
:1007A600984005FCEE9DFE0FD5F0E9E4CEFD22ED66
:1007B600F8F5F0EE8420D21CFEADF075F008EF2FB0
:1007C600FFED33FD4007985006D5F0F222C398FDA1
:0507D6000FD5F0EA223E
:00000001FF
