:100AA200A1A3A1A3B3F5CABCBBAFD6D0A1A3A1A3F6
:100AB20000CEC2B6C8A3BA00A1E600CEC2B6C8B381
:100AC200ACB1EA00CEC2B6C8BACFCACA00613246D9
:100AD2004600D1CCCEEDC5A8B6C8A3BA00D1CCCEC3
:100AE200EDC5A8B6C8B3ACB1EA00D1CCCEEDC5A86D
:100AF200B6C8BACFCACA005800F361356135F301EE
:070B0200F6F6F6F6F6FC0022
:100BDC000341000000470065613230304646000496
:100BEC002500000000012900012100012200023F24
:0B0BFC000000014400C1820223000041
:10002600E4F508F50975BCA0439720E5A2543F44C2
:1000360040F5A2120E7A120E61120E46120D9A7F2A
:10004600647E00120D437BFF7A0A79A2E4FDFF125B
:100056000B56752D021208F68E3F8F407FE87E0301
:10006600120D43120E461208F68E3F8F407BFF7A22
:100076000A79B3E4FDFF120B56AE3FAF407C037D19
:10008600E812077DEF4E6006EF2430FF800BE54C4B
:10009600B401047F2D80027F20120EA4AE3FAF4034
:1000A6007C037DE812077D7E007F64CFCDCFCECC6A
:1000B600CE12077DEF2430FF120EA4AE3FAF407C78
:1000C600007D6412077D7E007F0ACFCDCFCECCCED9
:1000D60012077DEF2430FF120EA47F2E120EA4AE5F
:1000E6003FAF407C007D0A12077DED2430FF120EE3
:1000F600A47F20120EA47BFF7A0A79BA7D07E4FF5B
:10010600120B56E54C7045AE3FAF40FC7D0A120718
:100116007DC3EF9419EE9400400C7529017BFF7A9C
:100126000A79BDE48009E4F5297BFF7A0A79C6FDE0
:100136007F01120B56AE3FAF407C007D0A12077D51
:10014600D3EF9418EE94005003E4F521E5296401F9
:100156007068E521706475090AF508AE3FAF40FC8A
:100166007D0A12077D8F2EE521704F75090AFB7AED
:1001760000792A120D750508E508C394284005750F
:10018600210180367F327E00120D43AF091509EF3B
:10019600601D750DFF750E0A750FCF7B017A00790C
:1001A60000120A20E94A4B60E2120E91752101E520
:1001B6002164016005120E9180AD7F01120B9F8EA6
:1001C600238F247BFF7A0A79D4E4FD7F02120B5633
:1001D600AE23AF247C007D6412076BEE1313543FED
:1001E600F524752300AE23FF12077D7E007F0ACF1C
:1001F600CDCFCECCCE12077DEF2430FF120EA4AEAB
:1002060023AF247C007D0A12077DED2430FF120EF9
:10021600A4C3E524941EE5239400400C7529017BB4
:10022600FF7A0A79DFE48009E4F5297BFF7A0A7907
:10023600ECFD7F03120B56D3E524940FE5239400BF
:100246005003E4F522E52964017062E522705E75CB
:10025600090AF508E5242464F52EE522704F750990
:100266000AFB7A00792A120D750508E508C3942859
:10027600400575220180367F327E00120D43AF099C
:100286001509EF601D750DFF750E0A750FCF7B0101
:100296007A007900120A20E94A4B60E2120E917543
:1002A6002201E52264016005120E9180AD750DFFF5
:1002B600750E0A750FF97B017A007900120A208BF8
:1002C600418A428943E94A4B700302006CAE02AF91
:1002D60001C3EF9400FFEE9400FEC3EF945AEE6460
:1002E600809480400302006C90000812073E645917
:1002F600600302006C90000712073E64316003023F
:10030600006C90000512073EFF6430600302006C2B
:1003160090000112073E6430600302006C900002F8
:1003260012073E6430600302006C90000312073E21
:100336006402600302006C900065EFF09000061204
:10034600073E900066F07B017A007965120D75AB69
:1003560041AA42A94390000412073E6402706EF55A
:10036600081208F68E3F8F40E4F52175090AFC7DD8
:100376000A12077D8F2EE521600302006C75090ABB
:10038600FB7A00792A120D750508E508C394284002
:10039600030204297F327E00120D43AF091509EFCF
:1003A600601D750DFF750E0A750FCF7B017A0079FA
:1003B60000120A20E94A4B60E2120E91752101E50E
:1003C600216401700302006C120E9180A9AB41AA50
:1003D60042A94390000412073E6401600302006CC8
:1003E600F5087F01120B9F8E238F247C007D6412FB
:1003F600076BEE1313543FF524752300E4F52175BE
:10040600090AE5242464F52EE521600302006C75D3
:10041600090AFB7A00792A120D750508E508C394C6
:1004260028400675210102006C7F327E00120D43C2
:10043600AF091509EF601D750DFF750E0A750FCF13
:100446007B017A007900120A20E94A4B60E2120E1B
:1004560091752101E5216401700302006C120E9171
:0204660080A66E
:100B9F007401A807088002C333D8FCF59DE4F5BDA6
:100BAF00F5BEE5BC54E044084FF5BC000000007FE3
:100BBF00FAE5BC30E41053BCEF00000000AFBDEF0E
:0C0BCF00FEADBEEDFF22DFE97E047F00DA
:010BDB0022F7
:0A0C0700011E00011F0041006400FF
:100E7A0053877F75985075D7E875D6FF758E1443DA
:070E8A008E01D2ACD2AF22B1
:080ED5008F993099FDC29922AA
:060D6F00AB16AA17A9183B
:100D75008B0A8A0B890CAB0AAA0BA90C12072560F2
:100D850013050CE50C7002050B14F9120725FF126B
:050D95000ED580E222F2
:100E28008B498A4A894B8B0D8A0E890F7B017A0080
:0E0E38007900120A20E94A4B6002D322C3223D
:100E91007E007F647D007B017A007900120816E4F0
:030EA100F51E2219
:03002300020C4C80
:100C4C00C0E0C083C082C0D0C2AC30981CC29874C3
:100C5C0000251EF582E43400F583E599F0051EE5C8
:100C6C001EC394644003751E00D2ACD0D0D082D089
:040C7C0083D0E0320F
:060842008B168A178918CD
:10084800120E91E4900064F0F51C120D6F7F327E59
:1008580000120D43E4F51DE51DC3940A50227F01E3
:100868007E00120D43051D85190D851A0E851B0F77
:100878007B017A007900120A20E94A4B60D9805B33
:10088800E4F51D051CE51CC3940A40BEE51CC39491
:10089800105054120B097C047D001207D27E007F91
:1008A8003212076B120D43120D6F7F327E00120D4C
:1008B80043E4F51DE51DC3940A50257F017E00120F
:1008C8000D43051D85190D851A0E851B0F7B017AB1
:1008D800007900120A20E94A4B60D97E007F012284
:0D08E800E4F51D051C80A5120E91E4FEFF35
:0108F50022E0
:100D4300E4FDFCE4FBFAC3EB9FEA9E501390000022
:100D5300A3E582647B458370F70BBB00010A80E641
:0B0D63000DBD00010CED640A4C70D8BF
:010D6E002262
:100003008081828384858687909192939495969735
:1000130088898A8B8C8D8E8F98999A9B9C9D9E9FA5
:0F0DE600120DF5EC54F0FF120DF5ECC454F0FFB4
:100DF500E4FEC294EF25E0FF9293D294C2940EBE16
:020E050008F0F3
:010E070022C8
:100C8000E4FFFEFDEE25E0FEC294D294C2943093C0
:100C9000010E0DBD08EEE4FDEF25E0FFC294D294F5
:100CA000C2943093010F0DBD08EEEF540FFFEE54C8
:030CB000F02FFF23
:010CB300221E
:0D0EB3007FFC120DF5120C80EF20E7F422F9
:100D160075F008E50AA4250BF582E435F0F583E5C0
:0E0D2600822403F582E5833400F583E493FF15
:0F0D3400AC07D292120EB37FF8120DE6C29222D4
:0F0EA400AC07D292120EB37FFA120DE6C2922261
:100E61007F30120D347F03120D347F0C120D347F4D
:090E710001120D347F06020D345C
:100CB400AB07AA05EB14600C14600D14600E24033A
:100CC4007B80800A7B9080067B8880027B9853021D
:100CD400077F30120D34EA2BFF120D34EA2BFF028A
:020CE4000D34CD
:100E46007F30120D347F80120D34E4FB7F20120EAA
:0B0E5600A40BBB40F7E4FDFF020CB44E
:100D9A007F34120D347F36120D34E4FBEB4480FFAE
:100DAA00120D347F80120D34E4FAE4FF120EA40A05
:070DBA00BA20F70BBB20E596
:010DC100220F
:100B56008F0A8D0B7F30120D34120D161207256089
:100B660037E50BB40805E4F50B050AE50AB40403FA
:100B7600E4F50A120D16120725FF120EA4740129B8
:100B8600F9E43AFA120725FF60D2120EA47401297D
:090B9600F9E43AFA050B80C422CF
:030C1100014C0093
:090ECB00007F097E97DEFEDFFCCA
:010ED40022FB
:060EDD0000007F6BDFFE48
:010EE30022EC
:0A0EC00000007F037E22DEFEDFFC4F
:010ECA002205
:100E0800E4FDFC0DBD00010CED640C4C70F5E4FD37
:0F0E1800FCC3ED9FEC9E50070DBD00010C80F256
:010E270022A8
:020CE600AB075A
:100CE800E4FAC29000000000000000000000EB13CE
:100CF8009290EBC313FB7F067E00120E08D2900081
:0D0D08000000000000000000000ABA08D53D
:010D150022BB
:100C1500E4FAC29000000000000000000000D2903D
:100C250000000000000000000000EBC313FB309043
:100C350005430380800353037F7F067E00120E0861
:060C45000ABA08CEAF035D
:010C4B002286
:100DC200D203D29000000000000000000000C29098
:100DD200120ECBD290120EDDA2909203120EC0D24E
:030DE20090A203D9
:010DE50022EB
:1008F600120DC2500302098F7FCC120CE67F441200
:100906000CE6120DC2500302098F7FCC120CE67F53
:10091600BE120CE6120C15A907120C157583008F72
:1009260082E582758200F583E9F582D394FFE5833B
:10093600940F4016754C01E582F4FFE583F4FEEF53
:100946002401F582E43EF5838003E4F54CAD82ACE8
:1009560083E412066BE4FBFA7980783D1205608F1A
:100966000D8E0C8D0B8C0AE4FFFE7D207C41AB0DB9
:10097600AA0CA90BA80A120560E4FBFAF9783F1243
:0D098600046F1206A48E838F82AF82AE83B1
:010993002241
:10046800020710E86480F8E933E83360110460F0AB
:10047800ED33EC337009E8FCE9FDEAFEEBFF2204FA
:1004880060DED3EB9FEA9EE99DE8C2E78CF0C2F7F5
:1004980095F0400CE8CCF8E9CDF9EACEFAEBCFFBC1
:1004A8001206DB85D0F05804700320D5B3E8047039
:1004B800075002B2D502071A92D5EC0460F7E4CCD3
:1004C800C0E0C398F8603B94186008400DD0E0FB8A
:1004D8000206F2E4FBFAC9FC8028E830E406E4C925
:1004E800FBE4CAFCE830E305E4C9CACBFCE85407DE
:1004F8006010F8C3E913F9EA13FAEB13FBEC13FCE9
:10050800D8F130F52FC3E49CFCEF9BFFEE9AFEED8B
:1005180099FDD0E0FBEF4E4D4C701222DB03020731
:1005280017EC2CFCEF33FFEE33FEED33FDED30E737
:10053800EB0206F2EF2BFFEE3AFEED39FDD0E0FBC1
:1005480050130BBB000302071AED13FDEE13FEEF69
:0805580013FFEC13FC0206F294
:10056000EC4D6011E8497017ED33EC3304600DE495
:10057000FCFFFEFD22E933E8330470F80207101295
:1005800006DB58046009E4CC248150062850090297
:10059000071A284003020717C0E0EB4A7044B980ED
:1005A00006D0E0FB020706EF4E701CBD8008EBFF93
:1005B000EAFEE9FD80EBE98DF0A4FEE5F0020649D4
:1005C000E9CDF9EAFEEBFFEF89F0A4FCE5F0CE8976
:1005D000F0A42EFFE435F0CD89F0A42DFEE435F033
:1005E0008067EF4E7005BD80D780C3EF8BF0A4AC61
:1005F000F0EE8BF0A42CFCE435F0F8EF8AF0A42C9C
:10060000E5F038FCE433CB8DF0A42CFCE5F03BF8AE
:10061000EE8AF0A42CFCE5F038F8E433CF89F0A49E
:100620002CFCE5F038CF3400CE89F0A42FFFE5F0A4
:100630003EFEE433C98DF0A42EFEE5F039CD8AF0FC
:10064000A42FFFE5F03EFEE43DFD33D0E0FB500774
:100650000BBB000F02071AEC2CFCEF33FFEE33FE4E
:06066000ED33FD0206F27D
:1006660075F020800E75F010800575F0087D007E0F
:10067600007F003392D530D503120808EC334010C2
:10068600EF33FFEE33FEED33FDEC33FCD5F0ED2218
:0E069600E5F0247EA2D513CC92E7CDCEFF2254
:1006A400EDD2E7CD33EC3392D524814006E4FFFE4E
:1006B400FDFC22FCE4CFCECDCC24E0501174FF80AD
:1006C400EDC3CC13CCCD13CDCE13CECF13CF04704A
:0706D400F030D5DE0208083A
:1006DB00E9D2E7C933E833F892D5EDD2E7CD33EC65
:0706EB0033FC5002B2D522DE
:1006F200EC30E7100FBF000C0EBE00080DBD000469
:100702000BEB6014A2D5EB13FCED92E7FD2274FF14
:10071200FCFDFEFF22E480F8A2D574FF13FC7D806D
:03072200E480EF81
:030000000209945E
:0C099400787FE4F6D8FD75814C0209DB89
:10072500BB010689828A83E0225002E722BBFE02D2
:09073500E32289828A83E4932205
:10073E00BB010CE58229F582E5833AF583E0225070
:10074E0006E92582F8E622BBFE06E92582F8E222BA
:0D075E00E58229F582E5833AF583E49322D4
:10076B00EF8DF0A4A8F0CF8CF0A428CE8DF0A42EA2
:02077B00FE225C
:10077D00BC000BBE0029EF8DF084FFADF022E4CC60
:10078D00F875F008EF2FFFEE33FEEC33FCEE9DEC29
:10079D00984005FCEE9DFE0FD5F0E9E4CEFD22ED6F
:1007AD00F8F5F0EE8420D21CFEADF075F008EF2FB9
:1007BD00FFED33FD4007985006D5F0F222C398FDAA
:0507CD000FD5F0EA2247
:1007D200C2D5EC30E709B2D5E4C39DFDE49CFCEE42
:1007E20030E715B2D5E4C39FFFE49EFE12077DC336
:1007F200E49DFDE49CFC800312077D30D507C3E431
:060802009FFFE49EFE22B0
:0E080800C3E49FFFE49EFEE49DFDE49CFC2201
:100B0900AC45AD46AE47AF487810EC4D4E4F70043A
:100B19007CA57DA5C3EC13FCED13FDEE13FEEF13CD
:100B2900FF5010EC64CCFCED644CFDEE644EFEEF1E
:100B390064CEFFD8DF8C458D468E478F48EE547FB3
:0D0B4900FE228E458F4674A5F547F5482223
:100A20008B0A8A0B890CAB0DAA0EA90F1207256041
:100A300063AB0AAA0BA90C120725605F850D108510
:100A40000E11850F128B138A148915AB10AA11A9E8
:100A500012120725FF6023AB13AA14A9151207254C
:100A60006F7017042512F512E43511F51174012584
:100A700015F515E43514F51480D1AB10AA11A9129F
:100A80001207257002800D7401250CF50CE4350B5E
:100A9000F50B809DAB0AAA0BA90C227B007A00798A
:020AA000002232
:10081600EF4E6012EF60010EEDBB010B89828A83F9
:10082600F0A3DFFCDEFA2289F05007F709DFFCA906
:0C083600F022BBFEFCF309DFFCA9F0225D
:1009A000020026E493A3F8E493A34003F68001F247
:1009B00008DFF48029E493A3F85407240CC8C33358
:1009C000C4540F4420C8834004F456800146F6DF27
:1009D000E4800B0102040810204080900BDCE47ED0
:1009E000019360BCA3FF543F30E509541FFEE4931C
:1009F000A360010ECF54C025E060A840B8E493A3E3
:100A0000FAE493A3F8E493A3C8C582C8CAC583CA0D
:100A1000F0A3C8C582C8CAC583CADFE9DEE780BEC5
:010C140000DF
:00000001FF
