:0300000002051ADC
:0C051A00787FE4F6D8FD758128020561A9
:1006A500F361356135F301F6F6F6F6F6FC00020066
:1006B5003808320004000808040004FF0808FB009D
:0C06C500061008081600061E08081800A1
:0C07810049007A6135303046460D0A0010
:10002600C203120675E4900073F090007AF07BFF2D
:100036007A0679B31207037F327E001206D190004A
:1000460064E024FC70030201311470030201F12400
:100056000370EBE525D3940B50030201E974F425F4
:1000660025F582E434FFF583E064F260030201E9DA
:1000760074F92525F582E434FFF583E0FF646160B9
:10008600030201E9EF643560030201E974FA2525EC
:10009600F582E434FFF583E0FF640C6019E5252F53
:1000A600FFE433FE74F42FF58274FF3EF583E064BB
:1000B600F660030201E974F52525F582E434FFF5BF
:1000C60083E090007CF074F62525F582E434FFF594
:1000D60083E090007DF07B017A00797C12070312A1
:1000E600076774F92525F582E434FFF583E024FEDD
:1000F600600F14601414601914601E2404702380A9
:10010600187BFF7A0679B980167BFF7A0679CB8051
:100116000E7BFF7A0679C580067BFF7A0679BF12C9
:10012600070312000E12074B0201E9E525D3940BD3
:1001360050030201E974F42525F582E434FFF583C2
:10014600E064F460030201E974F72525F582E434DE
:10015600FFF583E0646160030201E974F82525F583
:1001660082E434FFF583E06435707874FA2525F56A
:1001760082E434FFF583E0FF640C6016E5252FFF6B
:10018600E433FE74F42FF58274FF3EF583E064F6E3
:10019600705174002525F582E43400F583E4F0FE01
:1001A60074FA2525F9EE34FFFA7B0178737C007D1D
:1001B6000112032674F52525F582E434FFF583E064
:1001C60090007CF074F62525F582E434FFF583E093
:1001D60090007DF07B017A00797C120703D204C27D
:1001E6008CD2CDE4900064F0020044E4900064F008
:0301F600020044C0
:10074B00C2ACE5A2543F4440F5A275985075D7D87A
:0C075B0075D6FF758E14438E01D2AC22BF
:10076700C2ACE5A2543FF5A275985075D72075D64F
:0A077700FE758E14438E01D2AC22F1
:0A078D000124000125004100640072
:10067500E5A2543F4440F5A275985075D7D875D674
:10068500FF758E14438E01D2ACD2AF75890143A894
:1006950082758CC4E4F58AD28CF522F523C2042236
:03000B00020728C1
:10072800C0E0C0D0758CC4758A000521E521B414D9
:100738000DB2CD7521000523E52370020522D0D026
:03074800D0E032CC
:030023000204785C
:10047800C0E0C083C082C0D0C2AC20980302050887
:10048800C29874002524F582E43400F583E599F0D8
:1004980074002524F582E43400F583E0240F604AD3
:1004A80014604D24F8603814602A14601C14600E1F
:1004B8001470418524259000647401F080368524E9
:1004C800259000647402F0802B85242590006474C4
:1004D80003F080208524259000647404F08015853D
:1004E80024259000647405F0800AD291D20080041B
:1004F800C291D2020524E524C39463400375240005
:10050800309904C299C201D2ACD0D0D082D083D065
:02051800E032CF
:090798002001FDEFD201F59922C8
:0606FD00AB14AA15A916BA
:100703008B268A278928AB26AA27A9281201F960F4
:10071300130528E5287002052714F91201F9FF12C1
:05072300079880E222AE
:10000E007E007F647D007B017A007900120343E459
:03001E00F52422A4
:1006D100E4FDFCE4FBFAC3EB9FEA9E50139000009B
:1006E100A3E582647B458370F70BBB00010A80E6BA
:0B06F1000DBD00010CED640A4C70D838
:0106FC0022DB
:0603C4008B148A15891656
:1003CA0012000EE4900064F0F51A1206FD7F327EE8
:1003DA00001206D1E4F51BE51BC3940A50227F01E3
:1003EA007E001206D1051B85170B85180C85190D81
:1003FA007B017A0079001205A6E94A4B60D9805B35
:10040A00E4F51B051AE51AC3940A40BEE51AC3941B
:10041A001050541206287C047D001202247E007FAC
:10042A00321202121206D11206FD7F327E00120625
:10043A00D1E4F51BE51BC3940A50257F017E001207
:10044A0006D1051B85170B85180C85190D7B017ABA
:10045A000079001205A6E94A4B60D97E007F012285
:0D046A00E4F51B051A80A512000EE4FEFF4C
:010477002262
:10052600020026E493A3F8E493A34003F68001F2C5
:1005360008DFF48029E493A3F85407240CC8C333D6
:10054600C4540F4420C8834004F456800146F6DFA5
:10055600E4800B0102040810204080900781E47EAD
:10056600019360BCA3FF543F30E509541FFEE4939A
:10057600A360010ECF54C025E060A840B8E493A361
:10058600FAE493A3F8E493A3C8C582C8CAC583CA8C
:10059600F0A3C8C582C8CAC583CADFE9DEE780BE44
:010797000061
:1001F900BB010689828A83E0225002E722BBFE0204
:09020900E32289828A83E4932236
:10021200EF8DF0A4A8F0CF8CF0A428CE8DF0A42E00
:02022200FE22BA
:10022400C2D5EC30E709B2D5E4C39DFDE49CFCEEF5
:1002340030E715B2D5E4C39FFFE49EFE12036FC3FB
:10024400E49DFDE49CFC800312036F30D507C3E4F6
:060254009FFFE49EFE2264
:10062800AC1CAD1DAE1EAF1F7810EC4D4E4F7004C4
:100638007CA57DA5C3EC13FCED13FDEE13FEEF13B3
:10064800FF5010EC64CCFCED644CFDEE644EFEEF04
:1006580064CEFFD8DF8C1C8D1D8E1E8F1FEE547F3D
:0D066800FE228E1C8F1D74A5F51EF51F22AD
:10025A00E709F60870FA8046E709F20870FA803E64
:10026A0088828C83E709F0A370FA807EE309F60896
:10027A0070FA8076E309F20870FA806E88828C83BD
:10028A00E309F0A370FA806289828A83E0A3F60800
:10029A0070FA805689828A83E0A3F20870FA804A4B
:1002AA0080D280FA80C680D4806580F28031801046
:1002BA0080A680EA809A80A880DA80E280CA8031AB
:1002CA0089828A83ECFAE493A3C8C582C8CCC58321
:1002DA00CCF0A3C8C582C8CCC583CC70E9800D898F
:1002EA00828A83E493A3F60870F9ECFAA9F0EDFB8D
:1002FA002289828A83ECFAE0A3C8C582C8CCC58366
:10030A00CCF0A3C8C582C8CCC583CC70EA80DD898D
:10031A00828A83E493A3F20870F980CE88F0ED24F0
:10032A0002B4040050C4F582EB2402B4040050BAAB
:09033A0023234582239002AA73DB
:1005A6008B088A09890AAB0BAA0CA90D1201F960FE
:1005B60063AB08AA09A90A1201F9605F850B0E85CB
:1005C6000C0F850D108B118A128913AB0EAA0FA979
:1005D600101201F9FF6023AB11AA12A9131201F937
:1005E6006F7017042510F510E4350FF50F7401250B
:1005F60013F513E43512F51280D1AB0EAA0FA9102C
:100606001201F97002800D7401250AF50AE4350914
:10061600F509809DAB08AA09A90A227B007A007910
:020626000022B0
:10034300EF4E6012EF60010EEDBB010B89828A83D1
:10035300F0A3DFFCDEFA2289F05007F709DFFCA9DE
:0C036300F022BBFEFCF309DFFCA9F02235
:10036F00BC000BBE0029EF8DF084FFADF022E4CC72
:10037F00F875F008EF2FFFEE33FEEC33FCEE9DEC3B
:10038F00984005FCEE9DFE0FD5F0E9E4CEFD22ED81
:10039F00F8F5F0EE8420D21CFEADF075F008EF2FCB
:1003AF00FFED33FD4007985006D5F0F222C398FDBC
:0503BF000FD5F0EA2259
:00000001FF
