:030000000206D91C
:0C06D900787FE4F6D8FD7581250207202B
:10000E006134464600F361346134F306F6F6F6F6D3
:03001E00F6FC00ED
:0C09360049007A6134303046460D0A005A
:10002600C20312088CE4900073F090007AF0750B0E
:10003600FF750C00750D0E7BFF7A007913120625ED
:10004600EF64014E70DCC3E523942CE52294014055
:1000560003020110900064E0B404EBE525D3940B91
:1000660040E474F42525F582E434FFF583E0B4F426
:10007600D574FA2525F582E434FFF583E0FF640C98
:100086006015E5252FFFE433FE74F42FF58274FF27
:100096003EF583E0B4F6AF74F72525F582E434FF28
:1000A600F583E0B461A074F82525F582E434FFF504
:1000B60083E06434709074002525F582E43400F5FD
:1000C60083E4F0FE74FA2525F9EE34FFFA7B017815
:1000D600737C007D011204BC74F52525F582E43499
:1000E600FFF583E090007CF074F62525F582E43474
:1000F600FFF583E090007DF012094D7B017A0079CF
:100106007C1208EED204C28CD2CD20040302002851
:10011600300320750BFF750C00750D0E7B017A0000
:100126007965120625EF64014E6003020028C203BA
:10013600020322900064E024FC700302020814709B
:10014600030202BF240360030202C4E525D3940B15
:1001560050030202BF74F42525F582E434FFF583CB
:10016600E064F260030202BF74F72525F582E434E9
:10017600FFF583E0646160030202BF74F82525F58C
:1001860082E434FFF583E0643460030202BF74FA4C
:100196002525F582E434FFF583E0FF640C6016E55F
:1001A600252FFFE433FE74F42FF58274FF3EF583AA
:1001B600E064F6704A74F52525F582E434FFF5838C
:1001C600E090007CF074F62525F582E434FFF58393
:1001D600E090007DF07B017A00797C1208EE74F9DC
:1001E6002525F582E434FFF583E0FFB40106C291CC
:1001F600D2028008EFB40204D291D20012094D0255
:1002060002BFE525D3940B50030202BD74F42525E5
:10021600F582E434FFF583E064F460030202BD7402
:10022600FA2525F582E434FFF583E0FF640C6016B9
:10023600E5252FFFE433FE74F42FF58274FF3EF5B7
:1002460083E064F6707174F72525F582E434FFF5D2
:1002560083E06461706174F82525F582E434FFF566
:1002660083E06434705174002525F582E43400F58A
:1002760083E4F0FE74FA2525F9EE34FFFA7B017863
:10028600737C007D011204BC74F52525F582E434E7
:10029600FFF583E090007CF074F62525F582E434C2
:1002A600FFF583E090007DF07B017A00797C1208EF
:1002B600EED204C28CD2CD8000E4900064F030020D
:1002C60061C20278657C007D017BFF7A007913129A
:1002D60004BC90006A7401F0E4A3F0750B01750C80
:1002E60000750D737B017A0079651207E790006B44
:1002F600E014F090007174FEF090006574F1F075F2
:100306000BFF750C00750D0E7B017A0079651206E0
:1003160025EF64014E6005D20302002812094D0242
:100326000139200003020139C20078657C007D0195
:100336007BFF7A0079131204BC90006A7402F0E421
:10034600A3F0750B01750C00750D737B017A0079AE
:10035600651207E790006BE014F090007174FEF0F0
:1003660090006574F1F0750BFF750C00750D0E7B32
:10037600017A007965120625EF64014E6005D20305
:0903860002002812094D020139A0
:0A09420001240001250041006400BB
:10088C00E5A2543F4440F5A275985075D7D875D65B
:10089C00FF758E14438E01D2ACD2AF75890143A87B
:1008AC0082758CC4E4F58AD28CF522F523C204221D
:03000B00020913D4
:10091300C0E0C0D0758CC4758A000521E521B414EC
:100923000DB2CD7521000523E52370020522D0D039
:03093300D0E032DF
:0300230002056C67
:10056C00C0E0C0F0C083C082C0D0C2AC20980302EF
:10057C000611C29874002524F582E43400F583E555
:10058C0099F074002524F582E43400F583E0240806
:10059C00B4070050649005AF75F003A4C58325F033
:1005AC00C583730205FB0206010205F00205E50294
:1005BC0005DA0205CF0205C4852425900064740178
:1005CC00F080368524259000647402F0802B8524FD
:1005DC00259000647403F0802085242590006474B9
:1005EC0004F080158524259000647405F0800AD2EF
:1005FC0091D2008004C291D2020524E524C39463F5
:10060C004003752400309904C299C201D2ACD0D0F9
:09061C00D082D083D0F0D0E0328E
:090960002001FDEFD201F59922FE
:0608E800AB08AA09A90AF1
:1008EE008B108A118912AB10AA11A91212038F60F4
:1008FE00130512E5127002051114F912038FFF127F
:05090E00096080E222F7
:10094D007E007F647D007B017A0079001204D9E47A
:03095D00F524225C
:1008BC00E4FDFCE4FBFAC3EB9FEA9E5013900000AE
:1008CC00A3E582647B458370F70BBB00010A80E6CD
:0B08DC000DBD00010CED640A4C70D84B
:0108E70022EE
:060625008B088A09890A16
:10062B0012094DE4900064F0F50E1208E87F327E5B
:10063B00001208BCE4F50FE50FC3940A50227F01AA
:10064B007E001208BC050F850B13850C14850D1548
:10065B007B017A007900120765E94A4B60D9805B10
:10066B00E4F50F050EE50EC3940A40BEE50EC394E8
:10067B0010505412083F7C047D001203BA7E007F99
:10068B00321203A81208BC1208E87F327E0012084F
:10069B00BCE4F50FE50FC3940A50257F017E0012D1
:1006AB0008BC050F850B13850C14850D157B017A82
:1006BB00007900120765E94A4B60D97E007F012261
:0D06CB00E4F50F050E80A512094DE4FEFFB9
:0106D80022FF
:1006E500020026E493A3F8E493A34003F68001F205
:1006F50008DFF48029E493A3F85407240CC8C33316
:10070500C4540F4420C8834004F456800146F6DFE4
:10071500E4800B0102040810204080900936E47E35
:10072500019360BCA3FF543F30E509541FFEE493D9
:10073500A360010ECF54C025E060A840B8E493A3A0
:10074500FAE493A3F8E493A3C8C582C8CAC583CACB
:10075500F0A3C8C582C8CAC583CADFE9DEE780BE83
:01094C0000AA
:10038F00BB010689828A83E0225002E722BBFE026C
:09039F00E32289828A83E493229F
:1003A800EF8DF0A4A8F0CF8CF0A428CE8DF0A42E69
:0203B800FE2223
:1003BA00C2D5EC30E709B2D5E4C39DFDE49CFCEE5E
:1003CA0030E715B2D5E4C39FFFE49EFE120517C3BA
:1003DA00E49DFDE49CFC800312051730D507C3E4B5
:0603EA009FFFE49EFE22CD
:10083F00AC1CAD1DAE1EAF1F7810EC4D4E4F7004AB
:10084F007CA57DA5C3EC13FCED13FDEE13FEEF139A
:10085F00FF5010EC64CCFCED644CFDEE644EFEEFEB
:10086F0064CEFFD8DF8C1C8D1D8E1E8F1FEE547F24
:0D087F00FE228E1C8F1D74A5F51EF51F2294
:1007E7008B088A09890A8B0E8A0F8910AB08050ABC
:1007F700E50AAA097002050914F912038F70ED744E
:10080700FF250AF50A74FF3509F509AB0B050DE558
:100817000DAA0C7002050C14F912038FFFAB080523
:100827000AE50AAA097002050914F9EF120505700D
:08083700DAAB0EAA0FA9102292
:1003F000E709F60870FA8046E709F20870FA803ECD
:1004000088828C83E709F0A370FA807EE309F608FE
:1004100070FA8076E309F20870FA806E88828C8325
:10042000E309F0A370FA806289828A83E0A3F60868
:1004300070FA805689828A83E0A3F20870FA804AB3
:1004400080D280FA80C680D4806580F280318010AE
:1004500080A680EA809A80A880DA80E280CA803113
:1004600089828A83ECFAE493A3C8C582C8CCC58389
:10047000CCF0A3C8C582C8CCC583CC70E9800D89F7
:10048000828A83E493A3F60870F9ECFAA9F0EDFBF5
:100490002289828A83ECFAE0A3C8C582C8CCC583CE
:1004A000CCF0A3C8C582C8CCC583CC70EA80DD89F6
:1004B000828A83E493A3F20870F980CE88F0ED2459
:1004C00002B4040050C4F582EB2402B4040050BA14
:0904D000232345822390044073AC
:100765008B108A118912AB13AA14A91512038F6075
:1007750063AB10AA11A91212038F605F851316854A
:1007850014178515188B198A1A891BAB16AA17A970
:100795001812038FFF6023AB19AA1AA91B12038F26
:1007A5006F7017042518F518E43517F5177401252A
:1007B5001BF51BE4351AF51A80D1AB16AA17A91833
:1007C50012038F7002800D74012512F512E43511A4
:1007D500F511809DAB10AA11A912227B007A007930
:0207E5000022F0
:1004D900EF4E6012EF60010EEDBB010B89828A833A
:1004E900F0A3DFFCDEFA2289F05007F709DFFCA947
:0C04F900F022BBFEFCF309DFFCA9F0229E
:10050500BB010689828A83F0225002F722BBFE01D5
:02051500F322CF
:10051700BC000BBE0029EF8DF084FFADF022E4CCC8
:10052700F875F008EF2FFFEE33FEEC33FCEE9DEC91
:10053700984005FCEE9DFE0FD5F0E9E4CEFD22EDD7
:10054700F8F5F0EE8420D21CFEADF075F008EF2F21
:10055700FFED33FD4007985006D5F0F222C398FD12
:050567000FD5F0EA22AF
:00000001FF
